:1000000012C021C020C01FC01EC01DC01CC01BC00C
:100010001AC019C018C017C016C015C014C013C02C
:1000200012C011C010C011241FBECFE5D4E0DEBF46
:10003000CDBF20E0A0E6B0E001C01D92A737B20717
:10004000E1F715D0B3C1DCCFE199FECF9FBB8EBBEA
:100050006DBBE29AE19A0895E199FECF9FBB8EBBFA
:10006000E09A8DB3089514BA8FEF85BB0895FBDF36
:1000700081E090E0F1DF8093720081E090E0ECDFBE
:10008000809376008CE090E07ED18EE485D1D1E043
:10009000CD2F80916A008111B9C09A9BB7C0809121
:1000A000750081112FC098995BC1C0936B0080913E
:1000B0007300811104C084E46FD1C093730083EC9A
:1000C00099E00197F1F700C00000989B9FC0109243
:1000D0007300C09375008C2F90917200913009F0DD
:1000E00080E0882309F439C18C2F909176009130FB
:1000F00009F080E0882309F430C181E44DD11092E9
:10010000760084C0989982C08091660090916700C3
:10011000A0916800B09169000196A11DB11D809366
:10012000660090936700A0936800B093690083EC29
:1001300099E00197F1F700C00000989B1FC08091E3
:10014000660090916700A0916800B091690088975F
:10015000A105B10508F0FEC08EE41ED110926B001F
:10016000109275001092660010926700109268005D
:100170001092690083B398994FC083C0989B46C082
:100180008091660090916700A0916800B09169002D
:100190008897A105B105D0F110926200109263001A
:1001A000109264001092650081E4F6D080916200A4
:1001B00090916300A0916400B09165000196A11D2B
:1001C000B11D8093620090936300A0936400B0938C
:1001D0006500892B8A2B8B2B39F3109266001092C5
:1001E000670010926800109269008091720081117E
:1001F00007C06C2F81E090E027DFC093720006C03B
:1002000060E081E090E020DF10927200989B39C09E
:1002100080916B00811135C080916D00811119C0F2
:100220009A992FC083EC99E00197F1F700C0000084
:10023000C0936A0080917000811104C082E5ACD047
:10024000C09370009A9B1DC0C0936D001092700007
:1002500018C09A9916C083EC99E00197F1F700C095
:10026000000010926A0080916C00811104C08EE43D
:1002700093D0C0936C009A9B04C010926D001092B2
:100280006C0080917500813009F003CF83B38695AF
:1002900081708D1741F18D2F90916E00911180E04A
:1002A000882309F183EC99E00197F1F700C0000081
:1002B00080917100811104C08BE26ED0C0937100F7
:1002C000C0936F008091610081114FC060E081E0B8
:1002D00090E0BADEC093610010927200999B07C053
:1002E0001092710004C010926F001092610083B3ED
:1002F00083FB882780F98D1741F18D2F90916F0036
:10030000911180E0882309F183EC99E00197F1F7DE
:1003100000C0000080917400811104C08DE23CD0C7
:10032000C0937400C0936E0080916000811108C07A
:1003300060E081E090E088DEC0936000109272007F
:100340009B9BA7CE10927400A4CE10926E001092C8
:1003500060009FCE989920CF59CF989909C096CF29
:1003600098990CC096CE83B3F0CF9999B9CFFBCFB3
:1003700080916B00882309F44FCF88CF80916B0068
:10038000811187CE49CF90BD89B988E18AB9579A42
:10039000599A8EE880BD08955D9BFECF8CB989EF98
:1003A00090E00197F1F700C000000895F894FFCFA6
:00000001FF
