S01C0000666F7274776F736869667465725F76302E31756D2E737265632C
S11300000C9434000C9446000C9446000C94460066
S11300100C9446000C9446000C9446000C94460044
S11300200C9446000C9446000C9446000C94460034
S11300300C9446000C9446000C9446000C94460024
S11300400C9446000C9446000C9446000C94460014
S11300500C9446000C9446000C9446000C94460004
S11300600C9446000C94460011241FBECFEFD8E038
S1130070DEBFCDBF21E0A0E0B1E001C01D92A331FD
S1130080B207E1F70E945C000C94DC010C940000C0
S1130090F999FECF92BD81BD60BDFA9AF99A08958F
S11300A0F999FECF92BD81BDF89A80B5089580EF8D
S11300B087B98FE388B908950E94570081E090E0E2
S11300C00E94500080930E0181E090E00E94500055
S11300D08093120188E090E00E94C2018EE40E94A5
S11300E0CE01C1E080910601811198C0319B96C078
S11300F080911101811129C0329936C1C093070141
S113010080910F01811105C084E40E94CE01C09347
S11301100F018FE19EE40197F1F700C00000329BCC
S11301207DC010920F01C093110180910E018130A6
S113013009F017C180911201813009F012C181E4E4
S11301400E94CE011092120169C0329967C0809159
S1130150020190910301A0910401B091050101965F
S1130160A11DB11D8093020190930301A09304018A
S1130170B09305018FE19EE40197F1F700C0000000
S1130180329B20C08091020190910301A09104014F
S1130190B09105018897A105B10508F0DFC08EE490
S11301A00E94CE01109207011092110110920201D7
S11301B010920301109204011092050186B1329B42
S11301C06AC032C0329B2AC080910201909103011F
S11301D0A0910401B09105018897A105B105F0F043
S11301E081E40E94CE011092020110920301109248
S11301F004011092050180910E01811108C06C2F39
S113020081E090E00E944800C0930E0107C060E0C6
S113021081E090E00E94480010920E01329B3BC0A6
S113022080910701811137C08091080181111AC0A2
S1130230319931C08FE19EE40197F1F700C00000CD
S1130240C093060180910C01811105C082E50E94D2
S1130250CE01C0930C01319B1EC0C09308011092C3
S11302600C0119C0319917C08FE19EE40197F1F791
S113027000C000001092060180910901811105C09F
S11302808EE40E94CE01C0930901319B04C01092F8
S113029008011092090180911101813009F022CFE7
S11302A0309927C080910A01811123C08FE19EE417
S11302B00197F1F700C0000080910D01811105C084
S11302C08BE20E94CE01C0930D01C0930B0180917B
S11302D00101811109C060E081E090E00E944800C2
S11302E0C093010110920E01309B0AC010920D01BF
S11302F007C010920B011092010133992AC006C065
S1130300339927C080910B01811123C08FE19EE4B2
S11303100197F1F700C0000080911001811105C020
S11303208DE20E94CE01C0931001C0930A01809116
S11303300001811109C060E081E090E00E94480062
S1130340C093000110920E01339BCCCE1092100189
S1130350C9CE10920A0110920001C4CE329B5ECF26
S11303603FCF329904C09CCF329907C0BBCE809155
S11303700701882309F458CF93CF80910701811195
S1130380B1CE52CF1092C50083E38093C40086E0BF
S11303908093C20088E18093C1000895E0ECF0E00E
S11303A0908195FFFDCF8093C6008FEC97E0019775
S10F03B0F1F700C000000895F894FFCF9E
S9030000FC
