:1000000012C021C020C01FC01EC01DC01CC01BC00C
:100010001AC019C018C017C016C015C014C013C02C
:1000200012C011C010C011241FBECFE5D4E0DEBF46
:10003000CDBF20E0A0E6B0E001C01D92A237B2071C
:10004000E1F718D09FC1DCCFE199FECF9FBB8EBBFB
:100050006DBBE29AE19A0895E199FECF9FBB8EBBFA
:10006000E09A8DB308958FEF81BB9DEF92BB14BAD8
:1000700085BB0895F8DF81E090E0EEDF80936F00AC
:1000800081E0809371000F2EFDEFFF2EF02D11E027
:100090000F2EFEEFEF2EF02DDBED0BEFC12F0F2E0D
:1000A000F3EFCF2EF02D0F2EFBEEDF2EF02D8091F3
:1000B0006A008111C2C09A9BC0C0809170008111FA
:1000C00045C0989951C1C0936B0002BB83EC99E085
:1000D0000197F1F700C00000989BAFC0C09370007B
:1000E0008C2F90916F00913009F080E0882309F403
:1000F0002FC18C2F90917100913009F080E08823FE
:1001000009F426C1109262001092630010926400FC
:1001100010926500D2BB8091620090916300A09123
:100120006400B09165000196A11DB11D809362002D
:1001300090936300A0936400B0936500813197426F
:10014000A105B10538F31092710077C0989975C078
:100150008091660090916700A0916800B09169005D
:100160000196A11DB11D8093660090936700A09336
:100170006800B093690083EC99E00197F1F700C043
:10018000000033B38091660090916700A0916800F1
:10019000B09169002C2F88329105A105B10508F0B6
:1001A00020E0222309F4C7C030FFC5C0F2BA109284
:1001B0006B0010927000109266001092670010920F
:1001C00068001092690083B383B3112309F46FCFE1
:1001D00080FD3DC06CCFD2BB8091620090916300E6
:1001E000A0916400B09165000196A11DB11D80939E
:1001F000620090936300A0936400B0936500813126
:100200009742A105B10538F310926600109267007D
:10021000109268001092690080916F00811107C0F0
:100220006C2F81E090E010DFC0936F0006C060E0AB
:1002300081E090E009DF10926F0023B38C2F909142
:100240006B00911180E0882321F120FF22C0809172
:100250006C00811110C09A991CC0C0936A00E2BA68
:1002600083EC99E00197F1F700C000009A9B11C060
:10027000C0936C000EC09A990CC010926A00F2BA3A
:1002800083EC99E00197F1F700C000009A99109271
:100290006C0080917000813009F009CF83B386959E
:1002A00081708117B9F0812F90916D00911180E0DC
:1002B000882381F0D2BAC0936E00809161008111D1
:1002C0005FC060E081E090E0BFDEC093610010920B
:1002D0006F0005C002BB10926E001092610083B3E4
:1002E00083FB882780F98117B9F0812F90916E00E8
:1002F000911180E0882381F0C2BAC0936D00809193
:1003000060008111D4CE60E081E090E09DDEC0937A
:10031000600010926F00CBCE02BB10926D00109265
:100320006000C5CE109262001092630010926400CB
:100330001092650050CF33B32C2F8897A105B105DB
:1003400008F420E0222309F478CF30FDEBCF75CFFD
:1003500023B38C2F90916B00911180E0882309F4D6
:100360009DCF20FD74CF9ACF23B38C2F90916B003B
:10037000911180E0882309F49ACE20FD68CF97CEB2
:0803800083B3CACFF894FFCF4C
:00000001FF
