S01C0000666F7274776F736869667465725F76302E3175732E7372656326
S11300000C942A000C9434000C9434000C943400A6
S11300100C9434000C9434000C9434000C9434008C
S11300200C9434000C9434000C9434000C9434007C
S11300300C9434000C943B000C9434000C94340065
S11300400C9434000C9434000C9434000C9434005C
S11300500C94340011241FBECFE5D8E0DEBFCDBF21
S11300600E949B000C94B9000C9400008FEF87BB96
S11300708DEF88BB08951F920F920FB60F92112433
S11300802F934F935F938F939F93AF93BF934CB1F1
S113009050E04235510519F48EEF88BB1CC04E3434
S11300A0510519F48DEF88BB3AC04434510581F5EC
S11300B08BEF88BB34C080EA96E8A1E0B0E02BED7A
S11300C028BB0197A109B109D9F78BEF88BB4B3243
S11300D0510589F024C04D325105F1F480EA96E8C7
S11300E0A1E0B0E023EF28BB0197A109B109D9F73A
S11300F08BEF88BB14C080EA96E8A1E0B0E02BEE59
S113010028BB0197A109B109D9F78BEF88BB07C0B8
S11301104134510501F7CFCF4B32510561F3BF9103
S1130120AF919F918F915F914F912F910F900FBE3F
S11301300F901F9018950E94360088E090E00E946E
S1130140A60088E30E94B2007894FFCF90BD89B9DD
S113015088E18AB9579A599A8EE880BD81E08ABBB2
S11301601BBA089591E09BBB5D9BFECF8CB91BBA73
S10901700895F894FFCF8E
S9030000FC
