S01C0000666F7274776F736869667465725F76302E31756D2E737265632C
S113000012C021C020C01FC01EC01DC01CC01BC008
S11300101AC019C018C017C016C015C014C013C028
S113002012C011C010C011241FBECFE5D4E0DEBF42
S1130030CDBF20E0A0E6B0E001C01D92A737B20713
S1130040E1F715D0C7C1DCCFE199FECF9FBB8EBBD2
S11300506DBBE29AE19A0895E199FECF9FBB8EBBF6
S1130060E09A8DB3089514BA8FEF85BB0895FBDF32
S113007081E090E0F1DF8093720081E090E0ECDFBA
S11300808093760088E090E098D18FE49FD18BE64E
S11300909DD181E29BD18DE099D18AE097D1D1E0C5
S11300A0CD2F80916A008111ADC09A9BABC0809125
S11300B0750081112FC098996FC1C0936B00809116
S11300C07300811104C084E481D1C093730083EC74
S11300D099E00197F1F700C00000989B93C010923B
S11300E07300C09375008C2F90917200913009F0C9
S11300F080E0882309F444C18C2F909176009130DC
S113010009F080E0882309F43BC181E45FD11092B7
S1130110760078C0989976C08091660090916700C7
S1130120A0916800B09169000196A11DB11D809352
S1130130660090936700A0936800B093690083EC15
S113014099E00197F1F700C0000033B38091660095
S113015090916700A0916800B09169002C2F8832BB
S11301609105A105B10508F020E0222309F4FBC0A4
S113017030FFF9C08EE42AD110926B001092750002
S11301801092660010926700109268001092690045
S113019083B383B3DD2309F484CF80FD3DC081CFD5
S11301A081E414D18091620090916300A091640075
S11301B0B09165000196A11DB11D809362009093DA
S11301C06300A0936400B0936500892B8A2B8B2B6A
S11301D039F3109266001092670010926800109232
S11301E0690080917200811107C06C2F81E090E05A
S11301F02BDFC093720006C060E081E090E024DF52
S11302001092720023B38C2F90916B00911180E0B7
S11302108823B9F120FF35C080916D00811119C088
S11302209A992FC083EC99E00197F1F700C0000080
S1130230C0936A0080917000811104C082E5C6D029
S1130240C09370009A9B1DC0C0936D001092700003
S113025018C09A9916C083EC99E00197F1F700C091
S1130260000010926A0080916C00811104C08EE439
S1130270ADD0C0936C009A9B04C010926D00109294
S11302806C0080917500813009F00BCF83B38695A3
S113029081708D1741F18D2F90916E00911180E046
S11302A0882309F183EC99E00197F1F700C000007D
S11302B080917100811104C08BE288D0C0937100D9
S11302C0C0936F0080916100811174C060E081E08F
S11302D090E0BADEC093610010927200999B07C04F
S11302E01092710004C010926F001092610083B3E9
S11302F083FB882780F98D1741F18D2F90916F0032
S1130300911180E0882309F183EC99E00197F1F7DA
S113031000C0000080917400811104C08DE256D0A9
S1130320C0937400C0936E0080916000811108C076
S113033060E081E090E088DEC0936000109272007B
S11303409B9BAFCE10927400ACCE10926E001092B4
S11303506000A7CE109262001092630010926400B5
S1130360109265001DCF33B32C2F8897A105B105DA
S113037008F420E0222309F445CF30FDEBCF42CF2F
S113038023B38C2F90916B00911180E0882309F4A2
S11303907DCF20FD41CF7ACF23B38C2F90916B007A
S11303A0911180E0882309F47CCE20FD35CF79CEED
S11303B083B3CBCF999994CFFBCF90BD89B988E112
S11303C08AB9579A599A8EE880BD08955D9BFECFED
S10B03D08CB90895F894FFCFE5
S9030000FC
